{
  "contractName": "MerkleProofContract",
  "abi": [
    {
      "inputs": [],
      "name": "merkleRoot",
      "outputs": [
        {
          "internalType": "bytes32",
          "name": "",
          "type": "bytes32"
        }
      ],
      "stateMutability": "view",
      "type": "function"
    },
    {
      "inputs": [
        {
          "internalType": "address",
          "name": "",
          "type": "address"
        }
      ],
      "name": "whitelistClaimed",
      "outputs": [
        {
          "internalType": "bool",
          "name": "",
          "type": "bool"
        }
      ],
      "stateMutability": "view",
      "type": "function"
    },
    {
      "inputs": [
        {
          "internalType": "bytes32[]",
          "name": "_merkleProof",
          "type": "bytes32[]"
        }
      ],
      "name": "whitelistMint",
      "outputs": [],
      "stateMutability": "nonpayable",
      "type": "function"
    }
  ],
  "bytecode": "0x60806040527f3aee8a44138c85617a7ca944108ff3016ea9f36a794394f729be8e27024fc44260001b60005534801561003757600080fd5b50610468806100476000396000f3fe608060405234801561001057600080fd5b50600436106100415760003560e01c80632eb4a7ab14610046578063372f657c14610064578063db4bec44146100dd575b600080fd5b61004e610137565b6040518082815260200191505060405180910390f35b6100db6004803603602081101561007a57600080fd5b810190808035906020019064010000000081111561009757600080fd5b8201836020820111156100a957600080fd5b803590602001918460208302840111640100000000831117156100cb57600080fd5b909192939192939050505061013d565b005b61011f600480360360208110156100f357600080fd5b81019080803573ffffffffffffffffffffffffffffffffffffffff16906020019092919050505061035d565b60405180821515815260200191505060405180910390f35b60005481565b600160003373ffffffffffffffffffffffffffffffffffffffff1673ffffffffffffffffffffffffffffffffffffffff16815260200190815260200160002060009054906101000a900460ff16156101fd576040517f08c379a000000000000000000000000000000000000000000000000000000000815260040180806020018281038252601b8152602001807f416464726573732068617320616c726561647920636c61696d6564000000000081525060200191505060405180910390fd5b600033604051602001808273ffffffffffffffffffffffffffffffffffffffff1660601b815260140191505060405160208183030381529060405280519060200120905061028f838380806020026020016040519081016040528093929190818152602001838360200280828437600081840152601f19601f820116905080830192505050505050506000548361037d565b610301576040517f08c379a000000000000000000000000000000000000000000000000000000000815260040180806020018281038252600d8152602001807f496e76616c69642070726f6f660000000000000000000000000000000000000081525060200191505060405180910390fd5b60018060003373ffffffffffffffffffffffffffffffffffffffff1673ffffffffffffffffffffffffffffffffffffffff16815260200190815260200160002060006101000a81548160ff021916908315150217905550505050565b60016020528060005260406000206000915054906101000a900460ff1681565b60008082905060005b855181101561042457600086828151811061039d57fe5b602002602001015190508083116103e45782816040516020018083815260200182815260200192505050604051602081830303815290604052805190602001209250610416565b808360405160200180838152602001828152602001925050506040516020818303038152906040528051906020012092505b508080600101915050610386565b50838114915050939250505056fea2646970667358221220595e5d1ce503de0efe9bca63963aec1fd61b3b51937d637ec7d71b22de8cfe0464736f6c634300060c0033",
  "immutableReferences": {},
  "source": "// SPDX-License-Identifier: MIT\npragma solidity ^0.6.0;\n\nimport \"@openzeppelin/contracts-ethereum-package/contracts/cryptography/MerkleProof.sol\";\n\ncontract MerkleProofContract {\n  bytes32 public merkleRoot = 0x3aee8a44138c85617a7ca944108ff3016ea9f36a794394f729be8e27024fc442;\n\n  mapping(address => bool) public whitelistClaimed;\n\n  function whitelistMint(bytes32[] calldata _merkleProof) public {\n    require(!whitelistClaimed[msg.sender], \"Address has already claimed\");\n    bytes32 leaf = keccak256(abi.encodePacked(msg.sender));\n    require(MerkleProof.verify(_merkleProof, merkleRoot, leaf), \"Invalid proof\");\n    whitelistClaimed[msg.sender] = true;\n  }\n}\n",
  "sourcePath": "/home/workspace/merkle-tree-nft/contracts/MerkleProof.sol",
  "compiler": {
    "name": "solc",
    "version": "0.6.12+commit.27d51765.Emscripten.clang"
  },
  "schemaVersion": "3.4.9",
  "updatedAt": "2022-09-22T15:16:46.527Z",
  "devdoc": {
    "kind": "dev",
    "methods": {},
    "version": 1
  },
  "userdoc": {
    "kind": "user",
    "methods": {},
    "version": 1
  }
}